{
  "contractName": "FpERC1155",
  "abi": [
    {
      "inputs": [],
      "stateMutability": "nonpayable",
      "type": "constructor"
    },
    {
      "anonymous": false,
      "inputs": [
        {
          "indexed": true,
          "internalType": "address",
          "name": "account",
          "type": "address"
        },
        {
          "indexed": true,
          "internalType": "address",
          "name": "operator",
          "type": "address"
        },
        {
          "indexed": false,
          "internalType": "bool",
          "name": "approved",
          "type": "bool"
        }
      ],
      "name": "ApprovalForAll",
      "type": "event"
    },
    {
      "anonymous": false,
      "inputs": [
        {
          "indexed": true,
          "internalType": "address",
          "name": "operator",
          "type": "address"
        },
        {
          "indexed": true,
          "internalType": "address",
          "name": "from",
          "type": "address"
        },
        {
          "indexed": true,
          "internalType": "address",
          "name": "to",
          "type": "address"
        },
        {
          "indexed": false,
          "internalType": "uint256[]",
          "name": "ids",
          "type": "uint256[]"
        },
        {
          "indexed": false,
          "internalType": "uint256[]",
          "name": "values",
          "type": "uint256[]"
        }
      ],
      "name": "TransferBatch",
      "type": "event"
    },
    {
      "anonymous": false,
      "inputs": [
        {
          "indexed": true,
          "internalType": "address",
          "name": "operator",
          "type": "address"
        },
        {
          "indexed": true,
          "internalType": "address",
          "name": "from",
          "type": "address"
        },
        {
          "indexed": true,
          "internalType": "address",
          "name": "to",
          "type": "address"
        },
        {
          "indexed": false,
          "internalType": "uint256",
          "name": "id",
          "type": "uint256"
        },
        {
          "indexed": false,
          "internalType": "uint256",
          "name": "value",
          "type": "uint256"
        }
      ],
      "name": "TransferSingle",
      "type": "event"
    },
    {
      "anonymous": false,
      "inputs": [
        {
          "indexed": false,
          "internalType": "string",
          "name": "value",
          "type": "string"
        },
        {
          "indexed": true,
          "internalType": "uint256",
          "name": "id",
          "type": "uint256"
        }
      ],
      "name": "URI",
      "type": "event"
    },
    {
      "inputs": [
        {
          "internalType": "address",
          "name": "account",
          "type": "address"
        },
        {
          "internalType": "uint256",
          "name": "id",
          "type": "uint256"
        }
      ],
      "name": "balanceOf",
      "outputs": [
        {
          "internalType": "uint256",
          "name": "",
          "type": "uint256"
        }
      ],
      "stateMutability": "view",
      "type": "function"
    },
    {
      "inputs": [
        {
          "internalType": "address[]",
          "name": "accounts",
          "type": "address[]"
        },
        {
          "internalType": "uint256[]",
          "name": "ids",
          "type": "uint256[]"
        }
      ],
      "name": "balanceOfBatch",
      "outputs": [
        {
          "internalType": "uint256[]",
          "name": "",
          "type": "uint256[]"
        }
      ],
      "stateMutability": "view",
      "type": "function"
    },
    {
      "inputs": [],
      "name": "fpCoupon",
      "outputs": [
        {
          "internalType": "address",
          "name": "",
          "type": "address"
        }
      ],
      "stateMutability": "view",
      "type": "function"
    },
    {
      "inputs": [
        {
          "internalType": "address",
          "name": "account",
          "type": "address"
        },
        {
          "internalType": "address",
          "name": "operator",
          "type": "address"
        }
      ],
      "name": "isApprovedForAll",
      "outputs": [
        {
          "internalType": "bool",
          "name": "",
          "type": "bool"
        }
      ],
      "stateMutability": "view",
      "type": "function"
    },
    {
      "inputs": [],
      "name": "owner",
      "outputs": [
        {
          "internalType": "address",
          "name": "",
          "type": "address"
        }
      ],
      "stateMutability": "view",
      "type": "function"
    },
    {
      "inputs": [
        {
          "internalType": "address",
          "name": "from",
          "type": "address"
        },
        {
          "internalType": "address",
          "name": "to",
          "type": "address"
        },
        {
          "internalType": "uint256[]",
          "name": "ids",
          "type": "uint256[]"
        },
        {
          "internalType": "uint256[]",
          "name": "amounts",
          "type": "uint256[]"
        },
        {
          "internalType": "bytes",
          "name": "data",
          "type": "bytes"
        }
      ],
      "name": "safeBatchTransferFrom",
      "outputs": [],
      "stateMutability": "nonpayable",
      "type": "function"
    },
    {
      "inputs": [
        {
          "internalType": "address",
          "name": "from",
          "type": "address"
        },
        {
          "internalType": "address",
          "name": "to",
          "type": "address"
        },
        {
          "internalType": "uint256",
          "name": "id",
          "type": "uint256"
        },
        {
          "internalType": "uint256",
          "name": "amount",
          "type": "uint256"
        },
        {
          "internalType": "bytes",
          "name": "data",
          "type": "bytes"
        }
      ],
      "name": "safeTransferFrom",
      "outputs": [],
      "stateMutability": "nonpayable",
      "type": "function"
    },
    {
      "inputs": [
        {
          "internalType": "address",
          "name": "operator",
          "type": "address"
        },
        {
          "internalType": "bool",
          "name": "approved",
          "type": "bool"
        }
      ],
      "name": "setApprovalForAll",
      "outputs": [],
      "stateMutability": "nonpayable",
      "type": "function"
    },
    {
      "inputs": [
        {
          "internalType": "bytes4",
          "name": "interfaceId",
          "type": "bytes4"
        }
      ],
      "name": "supportsInterface",
      "outputs": [
        {
          "internalType": "bool",
          "name": "",
          "type": "bool"
        }
      ],
      "stateMutability": "view",
      "type": "function"
    },
    {
      "inputs": [
        {
          "internalType": "uint256",
          "name": "",
          "type": "uint256"
        }
      ],
      "name": "uri",
      "outputs": [
        {
          "internalType": "string",
          "name": "",
          "type": "string"
        }
      ],
      "stateMutability": "view",
      "type": "function"
    },
    {
      "inputs": [
        {
          "internalType": "address",
          "name": "fp",
          "type": "address"
        }
      ],
      "name": "setFpCoupon",
      "outputs": [],
      "stateMutability": "nonpayable",
      "type": "function"
    },
    {
      "inputs": [
        {
          "internalType": "string",
          "name": "_uri",
          "type": "string"
        }
      ],
      "name": "setURI",
      "outputs": [],
      "stateMutability": "nonpayable",
      "type": "function"
    },
    {
      "inputs": [
        {
          "internalType": "address",
          "name": "to",
          "type": "address"
        },
        {
          "internalType": "uint256",
          "name": "tokenId",
          "type": "uint256"
        },
        {
          "internalType": "uint256",
          "name": "amount",
          "type": "uint256"
        },
        {
          "internalType": "bytes",
          "name": "data",
          "type": "bytes"
        }
      ],
      "name": "mint",
      "outputs": [],
      "stateMutability": "nonpayable",
      "type": "function"
    },
    {
      "inputs": [
        {
          "internalType": "address",
          "name": "from",
          "type": "address"
        },
        {
          "internalType": "uint256",
          "name": "tokenId",
          "type": "uint256"
        },
        {
          "internalType": "uint256",
          "name": "amount",
          "type": "uint256"
        }
      ],
      "name": "burn",
      "outputs": [],
      "stateMutability": "nonpayable",
      "type": "function"
    },
    {
      "inputs": [
        {
          "internalType": "address",
          "name": "from",
          "type": "address"
        },
        {
          "internalType": "address",
          "name": "to",
          "type": "address"
        },
        {
          "internalType": "uint256",
          "name": "tokenId",
          "type": "uint256"
        },
        {
          "internalType": "uint256",
          "name": "amount",
          "type": "uint256"
        }
      ],
      "name": "transfer",
      "outputs": [],
      "stateMutability": "nonpayable",
      "type": "function"
    },
    {
      "inputs": [
        {
          "internalType": "address",
          "name": "account",
          "type": "address"
        },
        {
          "internalType": "uint256[]",
          "name": "tokenIds",
          "type": "uint256[]"
        }
      ],
      "name": "batchBalanceOf",
      "outputs": [
        {
          "internalType": "uint256[]",
          "name": "",
          "type": "uint256[]"
        }
      ],
      "stateMutability": "view",
      "type": "function"
    }
  ],
  "bytecode": "0x60806040523480156200001157600080fd5b506040805160208101909152600081526200003c6301ffc9a760e01b6001600160e01b036200009f16565b62000050816001600160e01b036200012416565b6200006b636cdb3d1360e11b6001600160e01b036200009f16565b620000866303a24d0760e21b6001600160e01b036200009f16565b50600480546001600160a01b03191633179055620001e2565b6001600160e01b03198082161415620000ff576040805162461bcd60e51b815260206004820152601c60248201527f4552433136353a20696e76616c696420696e7465726661636520696400000000604482015290519081900360640190fd5b6001600160e01b0319166000908152602081905260409020805460ff19166001179055565b8051620001399060039060208401906200013d565b5050565b828054600181600116156101000203166002900490600052602060002090601f016020900481019282601f106200018057805160ff1916838001178555620001b0565b82800160010185558215620001b0579182015b82811115620001b057825182559160200191906001019062000193565b50620001be929150620001c2565b5090565b620001df91905b80821115620001be5760008155600101620001c9565b90565b61210c80620001f26000396000f3fe608060405234801561001057600080fd5b50600436106100ff5760003560e01c80635bbde3a411610097578063e985e9c511610066578063e985e9c5146107f0578063f242432a1461081e578063f5298aca146108e7578063f5bd047114610919576100ff565b80635bbde3a4146106d6578063731133e9146106fa5780638da5cb5b146107ba578063a22cb465146107c2576100ff565b80630e89341c116100d35780630e89341c1461025f578063237db965146102f15780632eb2c2d6146103f25780634e1273f4146105b3576100ff565b8062fdd58e1461010457806301ffc9a71461014257806302fe53051461017d5780630411b25214610223575b600080fd5b6101306004803603604081101561011a57600080fd5b506001600160a01b03813516906020013561093f565b60408051918252519081900360200190f35b6101696004803603602081101561015857600080fd5b50356001600160e01b0319166109ae565b604080519115158252519081900360200190f35b6102216004803603602081101561019357600080fd5b810190602081018135600160201b8111156101ad57600080fd5b8201836020820111156101bf57600080fd5b803590602001918460018302840111600160201b831117156101e057600080fd5b91908080601f0160208091040260200160405190810160405280939291908181526020018383808284376000920191909152509295506109cd945050505050565b005b6102216004803603608081101561023957600080fd5b506001600160a01b03813581169160208101359091169060408101359060600135610a2d565b61027c6004803603602081101561027557600080fd5b5035610a96565b6040805160208082528351818301528351919283929083019185019080838360005b838110156102b657818101518382015260200161029e565b50505050905090810190601f1680156102e35780820380516001836020036101000a031916815260200191505b509250505060405180910390f35b6103a26004803603604081101561030757600080fd5b6001600160a01b038235169190810190604081016020820135600160201b81111561033157600080fd5b82018360208201111561034357600080fd5b803590602001918460208302840111600160201b8311171561036457600080fd5b919080806020026020016040519081016040528093929190818152602001838360200280828437600092019190915250929550610b2e945050505050565b60408051602080825283518183015283519192839290830191858101910280838360005b838110156103de5781810151838201526020016103c6565b505050509050019250505060405180910390f35b610221600480360360a081101561040857600080fd5b6001600160a01b038235811692602081013590911691810190606081016040820135600160201b81111561043b57600080fd5b82018360208201111561044d57600080fd5b803590602001918460208302840111600160201b8311171561046e57600080fd5b9190808060200260200160405190810160405280939291908181526020018383602002808284376000920191909152509295949360208101935035915050600160201b8111156104bd57600080fd5b8201836020820111156104cf57600080fd5b803590602001918460208302840111600160201b831117156104f057600080fd5b9190808060200260200160405190810160405280939291908181526020018383602002808284376000920191909152509295949360208101935035915050600160201b81111561053f57600080fd5b82018360208201111561055157600080fd5b803590602001918460018302840111600160201b8311171561057257600080fd5b91908080601f016020809104026020016040519081016040528093929190818152602001838380828437600092019190915250929550610bc6945050505050565b6103a2600480360360408110156105c957600080fd5b810190602081018135600160201b8111156105e357600080fd5b8201836020820111156105f557600080fd5b803590602001918460208302840111600160201b8311171561061657600080fd5b9190808060200260200160405190810160405280939291908181526020018383602002808284376000920191909152509295949360208101935035915050600160201b81111561066557600080fd5b82018360208201111561067757600080fd5b803590602001918460208302840111600160201b8311171561069857600080fd5b919080806020026020016040519081016040528093929190818152602001838360200280828437600092019190915250929550610ec4945050505050565b6106de61103a565b604080516001600160a01b039092168252519081900360200190f35b6102216004803603608081101561071057600080fd5b6001600160a01b038235169160208101359160408201359190810190608081016060820135600160201b81111561074657600080fd5b82018360208201111561075857600080fd5b803590602001918460018302840111600160201b8311171561077957600080fd5b91908080601f016020809104026020016040519081016040528093929190818152602001838380828437600092019190915250929550611049945050505050565b6106de6110ac565b610221600480360360408110156107d857600080fd5b506001600160a01b03813516906020013515156110bb565b6101696004803603604081101561080657600080fd5b506001600160a01b03813581169160200135166111aa565b610221600480360360a081101561083457600080fd5b6001600160a01b03823581169260208101359091169160408201359160608101359181019060a081016080820135600160201b81111561087357600080fd5b82018360208201111561088557600080fd5b803590602001918460018302840111600160201b831117156108a657600080fd5b91908080601f0160208091040260200160405190810160405280939291908181526020018383808284376000920191909152509295506111d8945050505050565b610221600480360360608110156108fd57600080fd5b506001600160a01b038135169060208101359060400135611397565b6102216004803603602081101561092f57600080fd5b50356001600160a01b03166113fe565b60006001600160a01b0383166109865760405162461bcd60e51b815260040180806020018281038252602b815260200180611eef602b913960400191505060405180910390fd5b5060009081526001602090815260408083206001600160a01b03949094168352929052205490565b6001600160e01b03191660009081526020819052604090205460ff1690565b6004546001600160a01b03163314610a21576040805162461bcd60e51b81526020600482015260126024820152711bdb9b1e481bdddb995c88185b1b1bddd95960721b604482015290519081900360640190fd5b610a2a81611474565b50565b6005546001600160a01b03163314610a84576040805162461bcd60e51b81526020600482015260156024820152741bdb9b1e48119c10dbdd5c1bdb88185b1b1bddd959605a1b604482015290519081900360640190fd5b610a908484848461148b565b50505050565b60038054604080516020601f6002600019610100600188161502019095169490940493840181900481028201810190925282815260609390929091830182828015610b225780601f10610af757610100808354040283529160200191610b22565b820191906000526020600020905b815481529060010190602001808311610b0557829003601f168201915b50505050509050919050565b606080825167ffffffffffffffff81118015610b4957600080fd5b50604051908082528060200260200182016040528015610b73578160200160208202803683370190505b50905060005b8351811015610bbe57610b9f85858381518110610b9257fe5b602002602001015161093f565b828281518110610bab57fe5b6020908102919091010152600101610b79565b509392505050565b8151835114610c065760405162461bcd60e51b815260040180806020018281038252602881526020018061208e6028913960400191505060405180910390fd5b6001600160a01b038416610c4b5760405162461bcd60e51b8152600401808060200182810382526025815260200180611f986025913960400191505060405180910390fd5b610c536115ae565b6001600160a01b0316856001600160a01b03161480610c7e5750610c7e85610c796115ae565b6111aa565b610cb95760405162461bcd60e51b8152600401808060200182810382526032815260200180611fbd6032913960400191505060405180910390fd5b6000610cc36115ae565b9050610cd3818787878787610ebc565b60005b8451811015610dd4576000858281518110610ced57fe5b602002602001015190506000858381518110610d0557fe5b60200260200101519050610d72816040518060600160405280602a8152602001612012602a91396001600086815260200190815260200160002060008d6001600160a01b03166001600160a01b03168152602001908152602001600020546115b39092919063ffffffff16565b60008381526001602090815260408083206001600160a01b038e811685529252808320939093558a1681522054610da9908261164a565b60009283526001602081815260408086206001600160a01b038d168752909152909320555001610cd6565b50846001600160a01b0316866001600160a01b0316826001600160a01b03167f4a39dc06d4c0dbc64b70af90fd698a233a518aa5d07e595d983b8c0526c8f7fb8787604051808060200180602001838103835285818151815260200191508051906020019060200280838360005b83811015610e5a578181015183820152602001610e42565b50505050905001838103825284818151815260200191508051906020019060200280838360005b83811015610e99578181015183820152602001610e81565b5050505090500194505050505060405180910390a4610ebc8187878787876116ab565b505050505050565b60608151835114610f065760405162461bcd60e51b81526004018080602001828103825260298152602001806120656029913960400191505060405180910390fd5b6060835167ffffffffffffffff81118015610f2057600080fd5b50604051908082528060200260200182016040528015610f4a578160200160208202803683370190505b50905060005b8451811015610bbe5760006001600160a01b0316858281518110610f7057fe5b60200260200101516001600160a01b03161415610fbe5760405162461bcd60e51b8152600401808060200182810382526031815260200180611f1a6031913960400191505060405180910390fd5b60016000858381518110610fce57fe5b602002602001015181526020019081526020016000206000868381518110610ff257fe5b60200260200101516001600160a01b03166001600160a01b031681526020019081526020016000205482828151811061102757fe5b6020908102919091010152600101610f50565b6005546001600160a01b031681565b6005546001600160a01b031633146110a0576040805162461bcd60e51b81526020600482015260156024820152741bdb9b1e48119c10dbdd5c1bdb88185b1b1bddd959605a1b604482015290519081900360640190fd5b610a908484848461193c565b6004546001600160a01b031681565b816001600160a01b03166110cd6115ae565b6001600160a01b031614156111135760405162461bcd60e51b815260040180806020018281038252602981526020018061203c6029913960400191505060405180910390fd5b80600260006111206115ae565b6001600160a01b03908116825260208083019390935260409182016000908120918716808252919093529120805460ff1916921515929092179091556111646115ae565b60408051841515815290516001600160a01b0392909216917f17307eab39ab6107e8899845ad3d59bd9653f200f220920489ca2b5937696c319181900360200190a35050565b6001600160a01b03918216600090815260026020908152604080832093909416825291909152205460ff1690565b6001600160a01b03841661121d5760405162461bcd60e51b8152600401808060200182810382526025815260200180611f986025913960400191505060405180910390fd5b6112256115ae565b6001600160a01b0316856001600160a01b0316148061124b575061124b85610c796115ae565b6112865760405162461bcd60e51b8152600401808060200182810382526029815260200180611f6f6029913960400191505060405180910390fd5b60006112906115ae565b90506112b08187876112a188611a38565b6112aa88611a38565b87610ebc565b6112fd836040518060600160405280602a8152602001612012602a913960008781526001602090815260408083206001600160a01b038d168452909152902054919063ffffffff6115b316565b60008581526001602090815260408083206001600160a01b038b81168552925280832093909355871681522054611334908461164a565b60008581526001602090815260408083206001600160a01b03808b168086529184529382902094909455805188815291820187905280518a841693861692600080516020611ecf83398151915292908290030190a4610ebc818787878787611a7c565b6005546001600160a01b031633146113ee576040805162461bcd60e51b81526020600482015260156024820152741bdb9b1e48119c10dbdd5c1bdb88185b1b1bddd959605a1b604482015290519081900360640190fd5b6113f9838383611bff565b505050565b6004546001600160a01b03163314611452576040805162461bcd60e51b81526020600482015260126024820152711bdb9b1e481bdddb995c88185b1b1bddd95960721b604482015290519081900360640190fd5b600580546001600160a01b0319166001600160a01b0392909216919091179055565b8051611487906003906020840190611d2c565b5050565b6001600160a01b0383166114d05760405162461bcd60e51b8152600401808060200182810382526025815260200180611f986025913960400191505060405180910390fd5b61151d816040518060600160405280602a8152602001612012602a913960008581526001602090815260408083206001600160a01b038b168452909152902054919063ffffffff6115b316565b60008381526001602090815260408083206001600160a01b038981168552925280832093909355851681522054611554908261164a565b60008381526001602090815260408083206001600160a01b03808916808652918452938290209490945580518681529182018590528051928816923392600080516020611ecf83398151915292908290030190a450505050565b335b90565b600081848411156116425760405162461bcd60e51b81526004018080602001828103825283818151815260200191508051906020019080838360005b838110156116075781810151838201526020016115ef565b50505050905090810190601f1680156116345780820380516001836020036101000a031916815260200191505b509250505060405180910390fd5b505050900390565b6000828201838110156116a4576040805162461bcd60e51b815260206004820152601b60248201527f536166654d6174683a206164646974696f6e206f766572666c6f770000000000604482015290519081900360640190fd5b9392505050565b6116bd846001600160a01b0316611d26565b15610ebc57836001600160a01b031663bc197c8187878686866040518663ffffffff1660e01b815260040180866001600160a01b03166001600160a01b03168152602001856001600160a01b03166001600160a01b03168152602001806020018060200180602001848103845287818151815260200191508051906020019060200280838360005b8381101561175d578181015183820152602001611745565b50505050905001848103835286818151815260200191508051906020019060200280838360005b8381101561179c578181015183820152602001611784565b50505050905001848103825285818151815260200191508051906020019080838360005b838110156117d85781810151838201526020016117c0565b50505050905090810190601f1680156118055780820380516001836020036101000a031916815260200191505b5098505050505050505050602060405180830381600087803b15801561182a57600080fd5b505af192505050801561184f57506040513d602081101561184a57600080fd5b505160015b6118e45761185b611dca565b8061186657506118ad565b60405162461bcd60e51b81526020600482018181528351602484015283518493919283926044019190850190808383600083156116075781810151838201526020016115ef565b60405162461bcd60e51b8152600401808060200182810382526034815260200180611e736034913960400191505060405180910390fd5b6001600160e01b0319811663bc197c8160e01b146119335760405162461bcd60e51b8152600401808060200182810382526028815260200180611ea76028913960400191505060405180910390fd5b50505050505050565b6001600160a01b0384166119815760405162461bcd60e51b81526004018080602001828103825260218152602001806120b66021913960400191505060405180910390fd5b600061198b6115ae565b905061199d816000876112a188611a38565b60008481526001602090815260408083206001600160a01b03891684529091529020546119d0908463ffffffff61164a16565b60008581526001602090815260408083206001600160a01b03808b1680865291845282852095909555815189815292830188905281519094861692600080516020611ecf83398151915292908290030190a4611a3181600087878787611a7c565b5050505050565b604080516001808252818301909252606091829190602080830190803683370190505090508281600081518110611a6b57fe5b602090810291909101015292915050565b611a8e846001600160a01b0316611d26565b15610ebc57836001600160a01b031663f23a6e6187878686866040518663ffffffff1660e01b815260040180866001600160a01b03166001600160a01b03168152602001856001600160a01b03166001600160a01b0316815260200184815260200183815260200180602001828103825283818151815260200191508051906020019080838360005b83811015611b2f578181015183820152602001611b17565b50505050905090810190601f168015611b5c5780820380516001836020036101000a031916815260200191505b509650505050505050602060405180830381600087803b158015611b7f57600080fd5b505af1925050508015611ba457506040513d6020811015611b9f57600080fd5b505160015b611bb05761185b611dca565b6001600160e01b0319811663f23a6e6160e01b146119335760405162461bcd60e51b8152600401808060200182810382526028815260200180611ea76028913960400191505060405180910390fd5b6001600160a01b038316611c445760405162461bcd60e51b8152600401808060200182810382526023815260200180611fef6023913960400191505060405180910390fd5b6000611c4e6115ae565b9050611c7e81856000611c6087611a38565b611c6987611a38565b60405180602001604052806000815250610ebc565b611ccb82604051806060016040528060248152602001611f4b6024913960008681526001602090815260408083206001600160a01b038b168452909152902054919063ffffffff6115b316565b60008481526001602090815260408083206001600160a01b03808a1680865291845282852095909555815188815292830187905281519394909390861692600080516020611ecf83398151915292908290030190a450505050565b3b151590565b828054600181600116156101000203166002900490600052602060002090601f016020900481019282601f10611d6d57805160ff1916838001178555611d9a565b82800160010185558215611d9a579182015b82811115611d9a578251825591602001919060010190611d7f565b50611da6929150611daa565b5090565b6115b091905b80821115611da65760008155600101611db0565b60e01c90565b600060443d1015611dda576115b0565b600481823e6308c379a0611dee8251611dc4565b14611df8576115b0565b6040513d600319016004823e80513d67ffffffffffffffff8160248401118184111715611e2857505050506115b0565b82840191508151925080831115611e4257505050506115b0565b503d83016020838301011115611e5a575050506115b0565b601f91909101601f191681016020016040529150509056fe455243313135353a207472616e7366657220746f206e6f6e2045524331313535526563656976657220696d706c656d656e746572455243313135353a204552433131353552656365697665722072656a656374656420746f6b656e73c3d58168c5ae7397731d063d5bbf3d657854427343f4c083240f7aacaa2d0f62455243313135353a2062616c616e636520717565727920666f7220746865207a65726f2061646472657373455243313135353a2062617463682062616c616e636520717565727920666f7220746865207a65726f2061646472657373455243313135353a206275726e20616d6f756e7420657863656564732062616c616e6365455243313135353a2063616c6c6572206973206e6f74206f776e6572206e6f7220617070726f766564455243313135353a207472616e7366657220746f20746865207a65726f2061646472657373455243313135353a207472616e736665722063616c6c6572206973206e6f74206f776e6572206e6f7220617070726f766564455243313135353a206275726e2066726f6d20746865207a65726f2061646472657373455243313135353a20696e73756666696369656e742062616c616e636520666f72207472616e73666572455243313135353a2073657474696e6720617070726f76616c2073746174757320666f722073656c66455243313135353a206163636f756e747320616e6420696473206c656e677468206d69736d61746368455243313135353a2069647320616e6420616d6f756e7473206c656e677468206d69736d61746368455243313135353a206d696e7420746f20746865207a65726f2061646472657373a2646970667358221220b4b5d7c6a8079ee992d3ae14dbefca651a1fc64416ffd71f4fc6d15eb73f4aeb64736f6c63430006080033",
  "immutableReferences": {},
  "source": "// SPDX-License-Identifier: MIT\npragma solidity ^0.6.0;\n\nimport \"./ExtendERC1155.sol\";\n\ncontract FpERC1155 is ExtendERC1155 {\n    address public owner;\n    address public fpCoupon;\n\n    modifier onlyOwner() {\n        require(msg.sender == owner, \"only owner allowed\");\n        _;\n    }\n\n    modifier onlyFpCoupon() {\n        require(msg.sender == fpCoupon, \"only FpCoupon allowed\");\n        _;\n    }\n\n    constructor() public ExtendERC1155(\"\") {\n        owner = msg.sender;\n    }\n\n    function setFpCoupon(address fp) public onlyOwner {\n        fpCoupon = fp;\n    }\n\n    function setURI(string memory _uri) public onlyOwner {\n        _setURI(_uri);\n    }\n\n    function mint(address to, uint256 tokenId, uint256 amount, bytes memory data) public onlyFpCoupon {\n        _mint(to, tokenId, amount, data);\n    }\n\n    function burn(address from, uint256 tokenId, uint256 amount) public onlyFpCoupon {\n        _burn(from, tokenId, amount);\n    }\n\n    function transfer(address from, address to, uint256 tokenId, uint256 amount) public onlyFpCoupon {\n        _transfer(from, to, tokenId, amount);\n    }\n\n    function batchBalanceOf(address account, uint256[] memory tokenIds) public view returns(uint256[] memory) {\n        uint256[] memory amounts = new uint256[](tokenIds.length);\n        for (uint i = 0; i < tokenIds.length; i++) {\n            amounts[i] = balanceOf(account, tokenIds[i]);\n        }\n        return amounts;\n    }\n}",
  "sourcePath": "/Users/liangqin/Public/xxxxx/dfuture/contracts/nft/FpERC1155.sol",
  "compiler": {
    "name": "solc",
    "version": "0.6.8+commit.0bbfe453.Emscripten.clang"
  },
  "schemaVersion": "3.4.1",
  "updatedAt": "2021-07-06T06:32:04.265Z",
  "devdoc": {
    "methods": {
      "balanceOf(address,uint256)": {
        "details": "See {IERC1155-balanceOf}.     * Requirements:     * - `account` cannot be the zero address."
      },
      "balanceOfBatch(address[],uint256[])": {
        "details": "See {IERC1155-balanceOfBatch}.     * Requirements:     * - `accounts` and `ids` must have the same length."
      },
      "isApprovedForAll(address,address)": {
        "details": "See {IERC1155-isApprovedForAll}."
      },
      "safeBatchTransferFrom(address,address,uint256[],uint256[],bytes)": {
        "details": "See {IERC1155-safeBatchTransferFrom}."
      },
      "safeTransferFrom(address,address,uint256,uint256,bytes)": {
        "details": "See {IERC1155-safeTransferFrom}."
      },
      "setApprovalForAll(address,bool)": {
        "details": "See {IERC1155-setApprovalForAll}."
      },
      "supportsInterface(bytes4)": {
        "details": "See {IERC165-supportsInterface}.     * Time complexity O(1), guaranteed to always use less than 30 000 gas."
      },
      "uri(uint256)": {
        "details": "See {IERC1155MetadataURI-uri}.     * This implementation returns the same URI for *all* token types. It relies on the token type ID substitution mechanism https://eips.ethereum.org/EIPS/eip-1155#metadata[defined in the EIP].     * Clients calling this function must replace the `\\{id\\}` substring with the actual token type ID."
      }
    }
  },
  "userdoc": {
    "methods": {}
  }
}